:100000000C946A000C947F000C947F000C947F0089
:100010000C947F000C947F000C947F000C947F0064
:100020000C947F000C947F000C947F000C947F0054
:100030000C947F000C947F000C947F000C947F0044
:100040000C947F000C947F000C947F000C947F0034
:100050000C947F009300A400B500C600D700E80010
:10006000F9000A011B012D013E014F0160017101E0
:1000700082019301A401B501C601D701E801F9018C
:100080000A021B022002310242025302640275027C
:1000900086029702C502CB02D102D702DD02E3023B
:1000A000E902EF02F502FB02010307030D0313034C
:1000B00019031F0325032B03310337033D034303B8
:1000C00049034F0355035B03610367036D03730328
:1000D00079037F0311241FBECFE5D8E0DEBFCDBF7B
:1000E00010E0A0E6B0E0E8EBF7E002C005900D926A
:1000F000AC38B107D9F70E9486030C94DA030C944C
:100100000000CF93DF93C0E6D0E044E850E0E88100
:100110008E2F90E08032910508F019C2FC01E65D57
:10012000FF4F0C94CB038981813011F4D09A0FC218
:1001300081110DC28A81813019F4D098D89A07C2F2
:10014000811105C2D09803C28981813011F4D19AFE
:10015000FEC18111FCC18A81813019F4D198D99AEC
:10016000F6C18111F4C1D198F2C18981813011F4B5
:10017000D29AEDC18111EBC18A81813019F4D298F4
:10018000DA9AE5C18111E3C1D298E1C18981813058
:1001900011F4D39ADCC18111DAC18A81813019F45A
:1001A000D398DB9AD4C18111D2C1D398D0C18981AF
:1001B000813011F4D49ACBC18111C9C18A818130B7
:1001C00019F4D498DC9AC3C18111C1C1D498BFC1BC
:1001D0008981813011F4D59ABAC18111B8C18A815F
:1001E000813019F4D598DD9AB2C18111B0C1D5988A
:1001F000AEC18981813011F4D69AA9C18111A7C1FC
:100200008A81813019F4D698DE9AA1C181119FC1EB
:10021000D6989DC18981813011F4D79A98C18111F6
:1002200096C18A81813019F4D798DF9A90C18111E3
:100230008EC1D7988CC18981813019F487B387BB6F
:1002400086C1811184C18A81813019F4B898C09A1D
:100250007EC181117CC1B8987AC18981813011F445
:10026000B99A75C1811173C18A81813019F4B99825
:10027000C19A6DC181116BC1B99869C18981813001
:1002800011F4BA9A64C1811162C18A81813019F472
:10029000BA98C29A5CC181115AC1BA9858C1898171
:1002A000813011F4BB9A53C1811151C18A818130CF
:1002B00019F4BB98C39A4BC1811149C1BB9847C17E
:1002C0008981813011F4BC9A42C1811140C18A8177
:1002D000813019F4BC98C49A3AC1811138C1BC98D4
:1002E00036C18981813011F4BD9A31C181112FC18C
:1002F0008A81813019F4BD98C59A29C1811127C11D
:10030000BD9825C18981813011F4BE9A20C1811127
:100310001EC18A81813019F4BE98C69A18C1811114
:1003200016C1BE9814C18981813011F4BF9A0FC1E2
:1003300081110DC18A81813019F4BF98C79A07C114
:10034000811105C1BF9803C18981813011F4A09A40
:10035000FEC08111FCC08A81813019F4A098A89A4E
:10036000F6C08111F4C0A098F2C08981813011F4E7
:10037000A19AEDC08111EBC08A81813019F4A19856
:10038000A99AE5C08111E3C0A198E1C089818130BB
:1003900011F4A29ADCC08111DAC08A81813019F48B
:1003A000A298AA9AD4C08111D2C0A298D0C0898143
:1003B000813011F4A39ACBC08111C9C08A818130E8
:1003C00019F4A398AB9AC3C08111C1C0A398BFC050
:1003D0008981813011F4A49ABAC08111B8C08A8190
:1003E000813019F4A498AC9AB2C08111B0C0A4981D
:1003F000AEC08981813011F4A59AA9C08111A7C02E
:100400008A81813019F4A598AD9AA1C081119FC04D
:10041000A5989DC08981813011F4A69A98C0811158
:1004200096C08A81813019F4A698AE9A90C0811145
:100430008EC0A6988CC08981811189C0A79A87C077
:100440008981813011F4889A82C0811180C08A81AB
:10045000813019F48898909A7AC0811178C0889870
:1004600076C08981813011F4899A71C081116FC081
:100470008A81813019F48998919A69C0811167C085
:10048000899865C08981813011F48A9A60C0811190
:100490005EC08A81813019F48A98929A58C081117D
:1004A00056C08A9854C08981813011F48B9A4FC00C
:1004B00081114DC08A81813019F48B98939A47C07D
:1004C000811145C08B9843C08981813011F48C9A89
:1004D0003EC081113CC08A81813019F48C98949A75
:1004E00036C0811134C08C9832C08981813011F4BA
:1004F0008D9A2DC081112BC08A81813019F48D987D
:10050000959A25C0811123C08D9821C089818130A1
:1005100011F48E9A1CC081111AC08A81813019F49D
:100520008E98969A14C0811112C08E9810C089813D
:10053000813011F48F9A0BC0811109C08A818130FA
:1005400019F48F98979A03C0811101C08F98239650
:10055000C417D50709F0DBCD81E0DF91CF91089575
:1005600090E0FC01EE0FFF1F8E0F9F1FFC01E05A71
:10057000FF4FE0818E2F90E08032910508F0C4C0DB
:10058000FC01E65BFF4F0C94CB03613011F4D89A69
:10059000BBC0D898B9C0613011F4D99AB5C0D99808
:1005A000B3C0613011F4DA9AAFC0DA98ADC06130EF
:1005B00011F4DB9AA9C0DB98A7C0613011F4DC9A72
:1005C000A3C0DC98A1C0613011F4DD9A9DC0DD9814
:1005D0009BC0613011F4DE9A97C0DE9895C06130FF
:1005E00011F4DF9A91C0DF988FC0613011F4C09A86
:1005F0008BC0C09889C0613011F4C19A85C0C19880
:1006000083C0613011F4C29A7FC0C2987DC061304E
:1006100011F4C39A79C0C39877C0613011F4C49AB9
:1006200073C0C49871C0613011F4C59A6DC0C5988B
:100630006BC0613011F4C69A67C0C69865C061305E
:1006400011F4C79A61C0C7985FC0613011F4A89ACD
:100650005BC0A89859C0613011F4A99A55C0A998F7
:1006600053C0613011F4AA9A4FC0AA984DC06130AE
:1006700011F4AB9A49C0AB9847C0613011F4AC9A01
:1006800043C0AC9841C0613011F4AD9A3DC0AD9803
:100690003BC0613011F4AE9A37C0AE9835C06130BE
:1006A00011F4AF9A31C0AF982FC0613011F4909A15
:1006B0002BC0909829C0613011F4919A25C091986F
:1006C00023C0613011F4929A1FC092981DC061300E
:1006D00011F4939A19C0939817C0613011F4949A49
:1006E00013C0949811C0613011F4959A0DC095987B
:1006F0000BC0613011F4969A07C0969805C061301E
:1007000011F4979A01C0979881E008950E94990387
:1007100080E090E00E94A60364E870E080E090E052
:100720000E94D1030097F1F761E089E00E94B002D6
:10073000F3CF0E94810081E48DB981E00895779B19
:10074000FECF2FB1FC01208381E008950F931F930A
:10075000CF938C01FC018081882369F0C801C0E03F
:100760000E949F03CF5FC8018C0F911DFC01208167
:100770002111F6CF01C0C8010E949F03F8018085B6
:100780008D3421F461E086E00E94B00281E0CF91D7
:100790001F910F910895EE0FFF1F0590F491E02D2A
:1007A0000994FB01DC018D91019080190110D9F3AE
:0807B000990B0895F894FFCFA6
:1007B8000D00000E01000F00000C000010010011D8
:1007C80001001201001301001401001501001601B7
:0C07D800001701004D4F48414D45440002
:00000001FF
