S01200005350495F4452495645522E73726563FB
S11300000C944A000C9467000C9467000C946700ED
S11300100C9467000C9467000C9467000C946700C0
S11300200C9467000C9467000C9467000C946700B0
S11300300C9467000C9467000C9467000C946700A0
S11300400C9467000C9467000C9467000C94670090
S11300500C9467007B008C009D00AE00BF00D000B4
S1130060E100F2000301150126013701480159019D
S11300706A017B018C019D01AE01BF01D001E10148
S1130080F2010302080219022A023B024C025D0239
S11300906E027F0211241FBECFE5D8E0DEBFCDBFC4
S11300A010E0A0E6B0E0E2ECF5E002C005900D92AD
S11300B0A837B107D9F720E0A8E7B0E001C01D9246
S11300C0A937B207E1F70E9498020C94DF020C945E
S11300D00000CF93DF93C0E6D0E04FE650E0E88124
S11300E08E2F90E08032910508F019C2FC01E65D84
S11300F0FF4F0C94D9028981813011F4D09A0FC238
S113010081110DC28A81813019F4D098D89A07C21E
S1130110811105C2D09803C28981813011F4D19A2A
S1130120FEC18111FCC18A81813019F4D198D99A18
S1130130F6C18111F4C1D198F2C18981813011F4E1
S1130140D29AEDC18111EBC18A81813019F4D29820
S1130150DA9AE5C18111E3C1D298E1C18981813084
S113016011F4D39ADCC18111DAC18A81813019F486
S1130170D398DB9AD4C18111D2C1D398D0C18981DB
S1130180813011F4D49ACBC18111C9C18A818130E3
S113019019F4D498DC9AC3C18111C1C1D498BFC1E8
S11301A08981813011F4D59ABAC18111B8C18A818B
S11301B0813019F4D598DD9AB2C18111B0C1D598B6
S11301C0AEC18981813011F4D69AA9C18111A7C128
S11301D08A81813019F4D698DE9AA1C181119FC118
S11301E0D6989DC18981813011F4D79A98C1811123
S11301F096C18A81813019F4D798DF9A90C1811110
S11302008EC1D7988CC18981813019F487B387BB9B
S113021086C1811184C18A81813019F4B898C09A49
S11302207EC181117CC1B8987AC18981813011F471
S1130230B99A75C1811173C18A81813019F4B99851
S1130240C19A6DC181116BC1B99869C1898181302D
S113025011F4BA9A64C1811162C18A81813019F49E
S1130260BA98C29A5CC181115AC1BA9858C189819D
S1130270813011F4BB9A53C1811151C18A818130FB
S113028019F4BB98C39A4BC1811149C1BB9847C1AA
S11302908981813011F4BC9A42C1811140C18A81A3
S11302A0813019F4BC98C49A3AC1811138C1BC9800
S11302B036C18981813011F4BD9A31C181112FC1B8
S11302C08A81813019F4BD98C59A29C1811127C149
S11302D0BD9825C18981813011F4BE9A20C1811154
S11302E01EC18A81813019F4BE98C69A18C1811141
S11302F016C1BE9814C18981813011F4BF9A0FC10F
S113030081110DC18A81813019F4BF98C79A07C140
S1130310811105C1BF9803C18981813011F4A09A6C
S1130320FEC08111FCC08A81813019F4A098A89A7A
S1130330F6C08111F4C0A098F2C08981813011F413
S1130340A19AEDC08111EBC08A81813019F4A19882
S1130350A99AE5C08111E3C0A198E1C089818130E7
S113036011F4A29ADCC08111DAC08A81813019F4B7
S1130370A298AA9AD4C08111D2C0A298D0C089816F
S1130380813011F4A39ACBC08111C9C08A81813014
S113039019F4A398AB9AC3C08111C1C0A398BFC07C
S11303A08981813011F4A49ABAC08111B8C08A81BC
S11303B0813019F4A498AC9AB2C08111B0C0A49849
S11303C0AEC08981813011F4A59AA9C08111A7C05A
S11303D08A81813019F4A598AD9AA1C081119FC07A
S11303E0A5989DC08981813011F4A69A98C0811185
S11303F096C08A81813019F4A698AE9A90C0811172
S11304008EC0A6988CC08981811189C0A79A87C0A3
S11304108981813011F4889A82C0811180C08A81D7
S1130420813019F48898909A7AC0811178C088989C
S113043076C08981813011F4899A71C081116FC0AD
S11304408A81813019F48998919A69C0811167C0B1
S1130450899865C08981813011F48A9A60C08111BC
S11304605EC08A81813019F48A98929A58C08111A9
S113047056C08A9854C08981813011F48B9A4FC038
S113048081114DC08A81813019F48B98939A47C0A9
S1130490811145C08B9843C08981813011F48C9AB5
S11304A03EC081113CC08A81813019F48C98949AA1
S11304B036C0811134C08C9832C08981813011F4E6
S11304C08D9A2DC081112BC08A81813019F48D98A9
S11304D0959A25C0811123C08D9821C089818130CE
S11304E011F48E9A1CC081111AC08A81813019F4CA
S11304F08E98969A14C0811112C08E9810C089816A
S1130500813011F48F9A0BC0811109C08A81813026
S113051019F48F98979A03C0811101C08F9823967C
S1130520C417D50709F0DBCD81E0DF91CF910895A1
S1130530CF93DF9300D0CDB7DEB70E94B5021A8205
S1130540198289819A818031974250F489819A81F4
S113055001969A83898389819A8180319742B0F385
S11305608FE690E00E94BD02FFCF0E94690081E502
S11305708DB981E0809378000895DC018091780042
S11305808823B1F081E0809378009C91992359F0FD
S113059020E09FB9779BFECF2F5FFD01E20FF11D95
S11305A090819111F6CF1FB8779BFECF8091780090
S11305B00895EE0FFF1F0590F491E02D0994F8942F
S10505C0FFCF67
S11305C20D01000E00000F01000C01001001004D8E
S10B05D24F48414D454400006F
S9030000FC
